:030000000205C036
:0C05C000787FE4F6D8FD7581760206070E
:10073900015A000230000A104A00000000000000BF
:100749000000000000000000001008000000000088
:10075900000000000000000000000017323F065BA7
:100769004F666D7D077F6F777C395E797176383793
:100779003E735C401818161514FF131211100D0C56
:0E0789000B0A0E0306090F0205080001040703
:04091000B2A07F050D
:0E091400AD071FED60087E64EE60F51E80FAF0
:0109220022B2
:04084A008E6A8F6BB8
:10084E00E4F56CF56DAF49FE1208DFE4F56EF56F59
:10085E0012089D7C007D0A120279AA04AB05AE6CCB
:10086E00AF6D7C007D0A120267EF2BF56DEE3AF547
:10087E006C056FE56F7002056EC39404E56E94000F
:0E088E0040CEE56B25E0244AF8A66C08A66D66
:01089C002239
:1008EA007C20E4FBE4909002F0745B2BF8E6FA902B
:1008FA009004F0909002ECF07F05120914ECC313F7
:05090A00FC0BBB06DF41
:01090F0022C5
:0E093500E4909002F0909001E0F4540FFF2245
:1007F4007C067F20EFF4909002F0EFC313FF9090FB
:1008040001E0F4540FFE1CEC6003EE60E7EE60338D
:10081400EC25E025E0FCEE30E1030C800FEE30E245
:10082400040C0C8007EE30E3030C0C0CE4909002F3
:10083400F07F0A120914120935EF70F574182CF8B8
:05084400E6FF227FFF2A
:01084900228C
:0806CF008F6D8E6C8D6B8C6A3F
:1006D700E4F55BF55CF55DF55EF55FF56075700556
:1006E700D3E56F9400E56E648094804044E47B0A10
:1006F700FAF9F8AF6DAE6CAD6BAC6A12033A7432AF
:100707002BF8E6FFAE701570745B2EF8A607AF6D79
:10071700AE6CAD6BAC6AE47B0AFAF9F812033A8F58
:100727006D8E6C8D6B8C6AE56F156F70B3156E806F
:01073700AF12
:01073800229E
:10000E00E4F565F566F567F568F569C2A012092392
:10001E00120943E4F564F563F562F561E5084509F7
:10002E0024FF9290E50A450B24FF9291E50C450DB5
:10003E0024FF9292E50E450F24FF9293E510451191
:10004E0024FF9294E512451324FF9295E51445156D
:10005E0024FF9296E516451724FF9297120935EF65
:10006E0070051208EA80F51207F48F65E565C394F2
:10007E0000404CE565D394095045E47F0AFEFDFC33
:10008E00AB64AA63A962A8611202AFA804A905AA6B
:10009E0006AB07E4FCFDFEEB2565F564EE3AF56371
:1000AE00ED39F562EC38F5610567E56770020566B6
:1000BE00AF64AE63AD62AC6185666EF56F8020E5B0
:1000CE0065B40F21E4F564F563F562F561F566F547
:1000DE0067AF64AE63AD62AC6185666E85676F12A5
:1000EE0006CF020199E565640E6003020199F56879
:1000FE00F569E56925E0244AF8E6FE08E6FFE4FC2A
:10010E00FDAB64AA63A962A861C31203CC7047E574
:10011E006764044566703FE56925E02408F8E6FE4D
:10012E0008E664014E702F755B5C755C73755D79C6
:10013E00755E37F55FF560AF69EF25E02408F8E4EA
:10014E00F608F6EF25E0244AF8E4F608F6AF69AEB5
:10015E006812043280110569E56970020568C3945E
:10016E0008E5689400408BE56964084568700F7572
:10017E005B79755C50755D50F55EF55FF560E4F585
:10018E0064F563F562F561F566F567E565640D6026
:10019E0003020221F568F569E56925E02408F8E611
:1001AE00FE08E64E7037AF69AE6812084AE569255B
:1001BE00E0244AF8E6FE08E6FFE48F648E63F562FB
:1001CE00F561AD62AC61F56E756F041206CF856890
:1001DE0030856931C28C1208EAD28C80110569E52E
:1001EE006970020568C39408E568940040AAE56941
:1001FE00640845687010755B71755C3E755D387589
:10020E005E38F55FF560E4F564F563F562F561F56A
:10021E0066F567E508450924FF9290E50A450B242B
:10022E00FF9291E50C450D24FF9292E50E450F24A9
:10023E00FF9293E510451124FF9294E51245132485
:10024E00FF9295E514451524FF9296E51645172461
:09025E00FF92971208EA02006AFF
:10092300438901758CFC758A18D2A9D2AFD28CD2B7
:02093300A922F7
:03000B0002064C9E
:10064C00C0E0C083C082C0D075D000C000C002C062
:09065C0003C004C005C006C0077C
:10066500758CFC758A180572E572700205716470E7
:100675007004E57164177038C3E53094004031E5C6
:10068500319408E530940050277571007572007536
:100695005B00755C00755D00755E00755F007560DB
:1006A50000756100755B001208EA75300075310A46
:0306B50085724902
:1006B800D007D006D005D004D003D002D000D0D0C7
:0706C800D082D083D0E032A4
:09094300D2AFD2A8D288D2B822AA
:0300030002079859
:10079800C0E0C0D075D000C000E53125E02408F8DD
:1007A8007600087601E508450924FF9290E50A4598
:1007B8000B24FF9291E50C450D24FF9292E50E451E
:1007C8000F24FF9293E510451124FF9294E51245FA
:1007D8001324FF9295E514451524FF9296E51645D6
:0C07E8001724FF9297D000D0D0D0E03250
:10043200EE60030205BFEFB4080040030205BF905F
:100442000448F828287302046002048C0204B802EB
:1004520004E402051002053C020568020594E4F575
:100462005AC2907FF4120914B2907FF41209140553
:100472005AE55AC3940240E9D290E4F55A1209109F
:10048200055AE55AC3943240F422E4F55AC2917FE8
:10049200F4120914B2917FF4120914055AE55AC3F1
:1004A200940240E9D291E4F55A120910055AE55A2C
:1004B200C3943240F422E4F55AC2927FF412091432
:1004C200B2927FF4120914055AE55AC3940240E924
:1004D200D292E4F55A120910055AE55AC3943240F1
:1004E200F422E4F55AC2937FF4120914B2937FF412
:1004F200120914055AE55AC3940240E9D293E4F56D
:100502005A120910055AE55AC3943240F422E4F50E
:100512005AC2907FF4120914B2947FF4120914059E
:100522005AE55AC3940240E9D294E4F55A120910EA
:10053200055AE55AC3943240F422E4F55AC2957F33
:10054200F4120914B2957FF4120914055AE55AC33C
:10055200940240E9D295E4F55A120910055AE55A77
:10056200C3943240F422E4F55AC2967FF41209147D
:10057200B2967FF4120914055AE55AC3940240E96F
:10058200D296E4F55A120910055AE55AC39432403C
:10059200F422E4F55AC2977FF4120914B2977FF459
:1005A200120914055AE55AC3940240E9D297E4F5B8
:0E05B2005A120910055AE55AC3943240F42239
:1005CC0002000EE493A3F8E493A34003F68001F237
:1005DC0008DFF48029E493A3F85407240CC8C33330
:1005EC00C4540F4420C8834004F456800146F6DFFF
:1005FC00E4800B0102040810204080900739E47E4F
:10060C00019360BCA3FF543F30E509541FFEE493F3
:10061C00A360010ECF54C025E060A840B8E493A3BA
:10062C00FAE493A3F8E493A3C8C582C8CAC583CAE5
:10063C00F0A3C8C582C8CAC583CADFE9DEE780BE9D
:010797000061
:10026700EF8DF0A4A8F0CF8CF0A428CE8DF0A42EAB
:02027700FE2265
:10027900C2D5EC30E709B2D5E4C39DFDE49CFCEEA0
:1002890030E715B2D5E4C39FFFE49EFE1203DDC338
:10029900E49DFDE49CFC80031203DD30D507C3E433
:0602A9009FFFE49EFE220F
:1002AF00E88FF0A4CC8BF0A42CFCE98EF0A42CFCEE
:1002BF008AF0EDA42CFCEA8EF0A4CDA8F08BF0A46C
:1002CF002DCC3825F0FDE98FF0A42CCD35F0FCEBCB
:1002DF008EF0A4FEA9F0EB8FF0A4CFC5F02ECD3990
:0F02EF00FEE43CFCEAA42DCE35F0FDE43CFC22FD
:1002FE0075F008758200EF2FFFEE33FECD33CDCCB7
:10030E0033CCC58233C5829BED9AEC99E582984039
:10031E000CF582EE9BFEED9AFDEC99FC0FD5F0D616
:10032E00E4CEFBE4CDFAE4CCF9A88222B800C1B940
:10033E000059BA002DEC8BF084CFCECDFCE5F0CB7E
:10034E00F97818EF2FFFEE33FEED33FDEC33FCEBB7
:10035E0033FB10D703994004EB99FB0FD8E5E4F972
:10036E00FA227818EF2FFFEE33FEED33FDEC33FC5F
:10037E00C933C910D7059BE99A4007EC9BFCE99A53
:10038E00F90FD8E0E4C9FAE4CCFB2275F010EF2F98
:10039E00FFEE33FEED33FDCC33CCC833C810D70798
:1003AE009BEC9AE899400AED9BFDEC9AFCE899F8D3
:0E03BE000FD5F0DAE4CDFBE4CCFAE4C8F92266
:1003CC00EB9FF5F0EA9E42F0E99D42F0E89C45F087
:0103DC0022FE
:10089D00AC73AD74AE75AF767810EC4D4E4F7004F1
:1008AD007CA57DA5C3EC13FCED13FDEE13FEEF133C
:1008BD00FF5010EC64CCFCED644CFDEE644EFEEF8D
:1008CD0064CEFFD8DF8C738D748E758F76EE547F6A
:0D08DD00FE228E738F7474A5F575F57622DA
:1003DD00BC000BBE0029EF8DF084FFADF022E4CC04
:1003ED00F875F008EF2FFFEE33FEEC33FCEE9DECCD
:1003FD00984005FCEE9DFE0FD5F0E9E4CEFD22ED13
:10040D00F8F5F0EE8420D21CFEADF075F008EF2F5C
:10041D00FFED33FD4007985006D5F0F222C398FD4D
:05042D000FD5F0EA22EA
:00000001FF
